:020000040800F2
:1000000090ED01208902000897020008990200087B
:100010009B0200089D0200089F02000800000000EB
:10002000000000000000000000000000A102000825
:10003000A302000800000000A5020008A7020008B3
:10004000A9020008A9020008A9020008A9020008E4
:10005000A9020008A9020008A9020008A9020008D4
:10006000A9020008A9020008A9020008A9020008C4
:10007000A9020008A9020008A9020008A9020008B4
:10008000A9020008A9020008A9020008A9020008A4
:10009000A9020008A9020008A9020008A902000894
:1000A000A9020008A9020008A9020008A902000884
:1000B000A902000895890008F9890008A90200082A
:1000C000A9020008A9020008A9020008A902000864
:1000D000A9020008FD8A0008A9020008A902000878
:1000E000A9020008A9020008A9020008A902000844
:1000F000A9020008A9020008A9020008A902000834
:10010000A90200084D7500082D8A0008A902000800
:10011000A9020008A9020008A9020008A902000813
:10012000A90200081D0F0008A9020008A902000882
:10013000A9020008A9020008A9020008A9020008F3
:10014000A9020008A9020008A9020008A9020008E3
:10015000A9020008A9020008A9020008A9020008D3
:10016000A9020008A9020008A9020008A9020008C3
:10017000A9020008A9020008210D0008A902000830
:10018000A9020008A902000800F002F800F06DF8CA
:100190000AA090E8000C82448344AAF10107DA45E2
:1001A00001D100F062F8AFF2090EBAE80F0013F0C7
:1001B000010F18BFFB1A43F0010318478026010006
:1001C000A02601000A444FF0000C10F8013B13F088
:1001D000070408BF10F8014B1D1108BF10F8015BA0
:1001E000641E05D010F8016B641E01F8016BF9D193
:1001F00013F0080F1EBF10F8014BAD1C0C1B09D1EA
:100200006D1E58BF01F801CBFAD505E014F8016B5B
:1002100001F8016B6D1EF9D59142D6D370470000ED
:100220000023002400250026103A28BF78C1FBD8FF
:10023000520728BF30C148BF0B607047642900F0E7
:10024000DB80752900F0D880782900F011816329BE
:1002500000F04983732900F04E83002070471FB5DA
:1002600010F02BF91FBD10B510BD00F099FB114621
:10027000FFF7F5FF0DF01CFC00F0B7FB03B4FFF730
:10028000F2FF03BC0BF02FF80B48016841F470013A
:1002900001600A480047FEE7FEE7FEE7FEE7FEE7EB
:1002A000FEE7FEE7FEE7FEE7FEE70000044805493B
:1002B000034A054B7047000088ED00E08901000803
:1002C00090E9012090ED012090E90120704710B5E0
:1002D0004C1084EA530404D54042C1F1000138BFF8
:1002E000491E1B4204D55242C3F1000338BF5B1EB6
:1002F00000F0F7F914F0804F04D04042C1F1000142
:1003000038BF491E14F0004F04D05242C3F100031D
:1003100038BF5B1E10BD00000FB4044910B503AA1E
:10032000029800F0EDFA10BC5DF814FB1C000020F0
:100330000FB41CB5074B06AA7B446946009005988C
:1003400000F0AFFA0020694600F0BEFA1CBC5DF870
:1003500014FB00008D05000070B504468569006837
:10036000C10601D5302600E02026C00707D070BDA9
:10037000D4E9012130469047206A401C20626D1E5E
:10038000F6D570BD70B5044685690078C00707D101
:1003900070BDD4E9012120209047206A401C2062D2
:1003A0006D1EF6D570BD70B50C460546012A05D008
:1003B0002878800600D5EA69002302E0012305E0E1
:1003C0005B1C934202D2E05C0028F9D1A869E618D0
:1003D000C01AA861286A184428622846FFF7BCFFA3
:1003E00004E0D5E9012114F8010B9047B442F8D399
:1003F0002846FFF7C7FF70BD2DE9F04106460024EF
:1004000010687529314616A510D0AFF3008000287A
:1004100002DA404213A507E031688A0701D512A528
:1004200002E0490704D511A5012401E0AFF30080E3
:1004300000210A2206F1240709E0B0FBF2FCB0FB20
:10044000F2F302FB1C00303078541846491C002897
:10045000F3D123462A463046BDE8F04100F0C3B947
:10046000000000002D0000002B0000002000000014
:1004700070B504460D4621461068AFF30080218810
:10048000090502D50F4A7A4402E00E4A7A440E3238
:10049000002104F1240305E000F00F060009965D39
:1004A0005E54491C0028F7D120780023000704D5AA
:1004B000702D02D009B1022311322046BDE87040F0
:1004C00000F091B93C2001002DE9F05F8946044617
:1004D0004FF0000ADFF874B1FB44C0F820A02046BA
:1004E000E1688847002874D0252806D0D4E9012186
:1004F0009047206A401C2062F1E700265F462046B4
:10050000E16888472028054607DB312D05D2781998
:1005100010F8200C08B10643F1E7B00701D526F02A
:100520000406C4F81CA00027C4F818A02A2D09D07E
:1005300028460AF0D1FE38B304EB8708303DC8F8EE
:10054000185019E059F8041B204604EB870291610A
:10055000E1688847012F054618D1E069002820DAB4
:1005600026F020061DE0D8F8180000EB800005EB0F
:1005700040003038C8F818002046E1688847054632
:100580000AF0AAFE0028EED1012F0AD02E2D08D1A4
:100590002046E16888477F1C0546022F46F020066A
:1005A000C4DBA069002803DA404246F00106A061DE
:1005B000F00701D026F010066C2D0BD0682D09D065
:1005C0004C2D39D06A2D35D0742D35D07A2D33D0BD
:1005D00016E038E0E1682F4620468847B8420546D5
:1005E00009D16C2F26D04FF48060E1680643204685
:1005F0008847054604E06C2F1AD04FF480700643FC
:100600000DB3A5F14100192802D8203546F4006643
:100610004A462946204626604E46FFF70FFE80B127
:1006200001280BD0F61D26F0070000F1080956E757
:100630004020E4E78020D8E70020D6E706F104094F
:100640004DE7284652E7206ABDE8F09F12200100DE
:10065000032A40F2308010F0030C00F0158011F8EE
:10066000013BBCF1020F624498BF11F801CB00F8C6
:10067000013B38BF11F8013BA2F1040298BF00F81A
:1006800001CB38BF00F8013B11F0030300F04A81B1
:10069000083AC0F0088051F8043B083A51F804CBFE
:1006A000A0E80810F5E7121D5CBF51F8043B40F8C4
:1006B000043BAFF30080D20724BF11F8013B11F8CF
:1006C00001CB48BF11F8012B24BF00F8013B00F813
:1006D00001CB48BF00F8012B704770477047704747
:1006E000704753EA020C00F069802DE9F04B4FF09F
:1006F0000006002B1FBFB3FA83F503FA05F424FAB2
:1007000005F65E4012BF1643B2FA82F502FA05F40E
:10071000C5F120051EBF22FA05FC44EA0C04203571
:1007200056EA044C4FEA144418BF641C4FF000080A
:100730004FF00009904271EB030C39D3002919BF27
:10074000B1FA81F701FA07F6B0FA80F700FA07F676
:10075000C7F120071EBF20FA07FC46EA0C06203727
:10076000B6FBF4FCA7EB0507103F07F01F0BCBF11E
:1007700020060CFA0BFB2CFA06F644BFB346002603
:10078000202FA4BF5E464FF0000B5BEA060C08BFAB
:100790004FF0010B19EB0B09ABFB027C48EB060891
:1007A000C01B06FB02CC0BFB03CC71EB0C01C1E7B9
:1007B0000B46024641464846BDE8F08B13B54FF064
:1007C00000004FF00001AFF30080BDE81C4070470F
:1007D00010B500F0D9F8006810BD10B5044600F05F
:1007E000D3F8046010BD2DE9F0470D4699469246B6
:1007F000044600F124080168880604D5E06921F068
:100800001001216000E00120A84201DD471B00E04B
:100810000027A1697A1902EB0900081AA061207863
:10082000C00602D42046FFF797FD002608E0D4E971
:1008300001211AF806009047206A401C761C2062AD
:100840004E45F4DB2078C0060AD52046FFF784FD2C
:1008500006E0D4E9012130209047206A401C206244
:10086000381EA7F10107F4DC07E0D4E9012118F8EC
:1008700005009047206A401C2062281EA5F1010552
:10088000F3DC2046FFF77EFD2078000602D502202B
:10089000BDE8F0870120FBE701694A1C0261087886
:1008A000704700B58FB0CDE90131002105910549B0
:1008B0007944CDE9031011466846FFF705FE0FB0F5
:1008C00000BD0000E5FFFFFF0A6802F8010B0A60A7
:1008D000704710B5436913B1AFF3008001E0FFF733
:1008E00062FD012010BD127800F124010A7000227F
:1008F0004A700122EDE711684FF0FF32E9E700008E
:10090000074B70B50D467B44FFF7CBFF04462846E6
:1009100000F03EF810B14FF0FF3070BD204670BDC2
:1009200013CE000010B5203AC0F00B80B1E818508B
:10093000203AA0E81850B1E81850A0E81850BFF4C9
:10094000F5AF5FEA027C24BFB1E81850A0E8185068
:1009500044BF18C918C0BDE810405FEA827C24BFBC
:1009600051F8043B40F8043B08BF7047D20728BF4A
:1009700031F8023B48BF11F8012B28BF20F8023B99
:1009800048BF00F8012B7047004870472CE9012050
:10099000007B00F080007047004870472CE9012080
:1009A0007546FFF7F9FFAE4605006946534620F04D
:1009B0000700854618B020B5FFF778FCBDE8204059
:1009C0004FF000064FF000074FF000084FF0000B0B
:1009D00021F00701AC46ACE8C009ACE8C009ACE8BE
:1009E000C009ACE8C0098D46704710B50446AFF3A6
:1009F00000802046BDE81040FFF740BC1CB50A4807
:100A0000016841F02001016002210320CDE90001CD
:100A100000230122C901054800F058FC04490020C8
:100A2000C1F8A0021CBD0000303802400014024092
:100A30000080424200204FF48031084A02E01368EF
:100A40001B0602D4491EFAD200E029B1034A40F243
:100A5000FF51121D1160704703207047342C014074
:100A6000104A116811F0450FFBD00F4A4B0703D510
:100A70000420106003207047C90702D001201060D5
:100A80007047084924390968814201D01020704715
:100A900040F2FF50106003482038006800F0080062
:100AA00070470000342C0140382C014030B5104D07
:100AB00000204FF480322C1F0BE0216811F0450F0D
:100AC00007D00AB14A0707D52968032041F004017D
:100AD0000BE0521EF1D2F5E7C90704D029680120C6
:100AE00041F00101296040F2FF51296030BD000052
:100AF000382C01400949086810F0450FFBD0410728
:100B0000074805D5016841F00401016003207047E2
:100B100040F2FF510160002070470000342C01407A
:100B2000382C014030B50546194B00201A6812F0E8
:100B3000450FFBD0174B540705D5186840F004004B
:100B40001860032030BDD20705D0186840F00100BE
:100B50001860012030BD0E4A243A1268AA4211D111
:100B600040F2FF521A600A4A203A126812F4604FAB
:100B700003D0910404D5132030BD120C0A8030BD7F
:100B8000510401D5102030BD1104FCD50F2030BD1B
:100B9000342C0140382C014030B50E4D00204FF46C
:100BA00080322C1F0BE0216811F0450F07D00AB1ED
:100BB0004A0707D52968032041F0040108E0521EC6
:100BC000F1D2F5E7490604D52968002041F040013B
:100BD000296030BD382C01402DE9F04780460E4693
:100BE00017464FF000090C200AF006FD0446002CC1
:100BF00036D00C22002120460AF002FDB0000AF097
:100C0000FBFC2060206828B3B200002120680AF0B5
:100C1000F7FC002512E0B8000AF0EEFC216841F86C
:100C20002500206850F8250000B909E0216851F836
:100C30002500BA0000210AF0E3FC6D1CB542EADB96
:100C400000BFB54201D04FF001096660A760C8F847
:100C5000004007E020460AF055FC4FF0010901E092
:100C60004FF001094846BDE8F0870000F0B4294C78
:100C7000049E256845F480052560274C2568ED070E
:100C8000FCD1254D203D2F6847F474672F60224F1B
:100C9000212514373D60204F204D08373D603D1D14
:100CA0002860281D0160381F026000202060206835
:100CB0002060206840F480702060206820602068F8
:100CC00040EA86202060206840F480502060206840
:100CD00040EA43302060206840F400302060206803
:100CE000206020682060206840F0007020600029AB
:100CF0000ED0206840F480202060206840F0100072
:100D00002060F0BC022339220021084605F0B8BE5D
:100D1000F0BC70473038024028640240280005507B
:100D200010B50C4C2069C00710D00CF0AEFE606905
:100D300040F0010060610849D1F8A80238B10020F4
:100D4000C1F8A80205480178491C017010BD0120B6
:100D5000F6E70000000005500080424244000020F9
:100D60002DE9FC415048016841F001010160016832
:100D700041F002010160016841F004010160016875
:100D800041F010010160001D016841F001010160A6
:100D900001240325DFF81481CDE900540023022249
:100DA0005021404600F092FA414ECDE90054002314
:100DB0000222C021304600F089FA3E4FCDE90054AE
:100DC000002302224FF43C61384600F07FFACDE95F
:100DD0000054394C002302226021204600F076FAAC
:100DE0000D220421404600F061FA0D220621404602
:100DF00000F05CFA0D220721304600F057FA0D2270
:100E00000621384600F052FA0D220721384600F03C
:100E10004DFA0D220821384600F048FA0D2209212A
:100E2000384600F043FA0D220B21384600F03EFA16
:100E30000D220621304600F039FA0D220521204608
:100E400000F034FA0D220621204600F02FFA1B484C
:100E500000210160C1601F2242618161C1610162A4
:100E60004162016801600168016001680160016818
:100E700041F02001016001680160016801600168C2
:100E8000016001680160C16841F00101C160016851
:100E900041F48041016002B00223BDE8F0414E22DE
:100EA0000021084605F0ECBD303802400000024049
:100EB00000040240000802400010024000000550FB
:100EC000094810B501880948008805F071FB05F054
:100ED000ABFD0748016841F0010101600548016868
:100EE00041F00101016010BD04000020020000205B
:100EF00028640240000005500648016821F0010105
:100F000001600168C907FCD10348016821F00101B3
:100F100001607047000005502864024006480068E0
:100F2000000508D504480830016841F400610160FB
:100F300002484068004770470064024044000020B7
:100F40002DE9FC478F48016841F0780101608D4828
:100F50000830016841F001010160DFF82C920C2299
:100F60000A21484600F0A2F901240325874ECDE965
:100F70000054002302224FF63371304600F0A6F9E8
:100F8000834FCDE90054002302224FF68371384687
:100F900000F09CF9DFF8FC81CDE900540023022227
:100FA0004FF23F01404600F091F9CDE90054002393
:100FB000022240F23F41484600F088F90C2200210D
:100FC000304600F073F90C220121304600F06EF932
:100FD0000C220421304600F069F90C22052130462C
:100FE00000F064F90C220821304600F05FF90C2271
:100FF0000921304600F05AF90C220A21304600F04F
:1010000055F90C220B21304600F050F90C22114604
:10101000304600F04BF90C220D21304600F046F925
:101020000C220E21304600F041F90C220F213046EF
:1010300000F03CF90C220021384600F037F90C2270
:101040000121384600F032F90C220721384600F021
:101050002DF90C220821384600F028F90C2209212C
:10106000384600F023F90C220A21384600F01EF918
:101070000C220B21384600F019F90C221146384693
:1010800000F014F90C220D21384600F00FF90C2263
:101090000E21384600F00AF90C220F21384600F0E4
:1010A00005F90C220021404600F000F90C22012134
:1010B000404600F0FBF80C220221404600F0F6F812
:1010C0000C220321404600F0F1F80C220421404696
:1010D00000F0ECF80C220521404600F0E7F80C2265
:1010E0001146404600F0E2F80C220D21404600F087
:1010F000DDF80C220E21404600F0D8F80C220F211A
:10110000404600F0D3F80C220021484600F0CEF80B
:101110000C220121484600F0C9F80C220221484661
:1011200000F0C4F80C220321484600F0BFF80C225E
:101130000421484600F0BAF80C220521484600F088
:10114000B5F84FF02040002101614161C0F8141151
:10115000016941F480510161016941F010010161AF
:10116000416941F400614161416941614169416105
:101170006FF07041C0F81411016941F00101016183
:10118000BDE8FC873038024000180240000C0240E5
:101190000010024000140240FCB500240D46064633
:1011A0000094082201211020019406F0D1F91020AA
:1011B000FFF756FC002834D132040121372006F015
:1011C000C7F93720FFF74CFC00282AD1012303225E
:1011D0000821401E06F0CEF900220121332006F03E
:1011E000B7F93320FFF73CFC214A002819D1204BE6
:1011F00069464C3340F22A661768374208D11768AF
:10120000BF02F9D51F6841F82470641C022CF3D387
:1012100011680B07174905D5086840F008000860F9
:101220000420FCBD13689B0705D5086840F0020048
:1012300008600220FCBD13689B0605D5086840F0D5
:10124000200008600620FCBD1268920505D50868DC
:1012500040F4007008600720FCBD40F2FF520A60B5
:10126000009909BA6960019909BA2960FCBD0000BA
:10127000342C0140382C014070B5044666680025C6
:1012800009E0206850F8250020B1216851F82500B8
:101290000AF038F96D1CB542F3DB206810B1206804
:1012A0000AF030F920460AF02DF970BDCB0810B5D0
:1012B00000EB8300036A4907C90E0F248C40A34347
:1012C0000362036A8A401343036210BD2DE9F04FA5
:1012D0009946DDE909AC00234FF0010B4FF0030EF6
:1012E0000BFA03F501EA0504AC422AD107685C0059
:1012F0000EFA04F6B7430760076802FA04F847EAF3
:1013000008070760012A01D0022A12D18768B74373
:101310008760D0F808800AFA04F748EA0708C0F89E
:1013200008804768AF434760476809FA03F52F43D1
:101330004760C568B543C560C5680CFA04F4254329
:10134000C5605B1C102BCBD3BDE8F08F1FB52DED16
:10135000040BB0B09DED300B53EC102B9DED320B18
:1013600051EC100B0EF0EAFACDE92E013A98401E2E
:101370000B900EF0D4FCCDE90C019DED0C0B53EC61
:10138000102B9FEDF70B51EC100B0EF0D7FACDE9B7
:101390000E019DED0E1B9DED2E0B08F0A5FA8DEDB7
:1013A0002C0B36980EF0BBFCCDE90A013A980EF0F2
:1013B000B6FCCDE908019DED0A0B53EC102B9DED19
:1013C000080B51EC100B0EF01DFFCDE90C019DED4B
:1013D0000C1B9DED2C0B08F087FA8DED0E0B9DED8F
:1013E0000E0B53EC102B9DED320B51EC100B0EF04D
:1013F000A5FACDE92A019FEDDC0B07F0D1FF8DEDB9
:10140000040B9FEDD90B53EC102B9DED040B51EC0D
:10141000100B0EF0EBFCCDE906019DED060B09F07B
:10142000EFF88DED0A0B9FEDCE0B53EC102B9DEDDD
:101430002C0B51EC100B0EF0C5F9CDE908019DED18
:101440000A0B53EC102B9DED080B51EC100B0EF01A
:10145000CDFC9FEDC30B53EC102BCDE90E019DEDA0
:101460002C0B51EC100B0EF0CDFECDE90A019DEDD9
:101470002A0B53EC102B9DED0A0B51EC100B0EF0C8
:10148000B5FCCDE90C019DED0E0B53EC102B9DED41
:101490000C0B51EC100B0EF051FACDE926019DED2D
:1014A000260B53EC102B9DED260B51EC100B0EF080
:1014B0009DFC9FEDAD0BCDE90C0107F071FF8DEDAB
:1014C000080B9FEDAB0B53EC102B9DED080B51EC73
:1014D000100B0EF08BFCCDE90A019DED0C0B53ECCB
:1014E000102B9DED0A0B51EC100B0EF07FFCCDE99B
:1014F0000E019DED2A0B53EC102B9DED0E0B51ECC4
:10150000100B0EF01BFACDE928019DED260B53ECD4
:10151000102B9DED260B51EC100B0EF067FCCDE966
:1015200004019DED280B53EC102B9DED280B51EC85
:10153000100B0EF05BFCCDE902019DED040B53ECAA
:10154000102B9DED020B51EC100B0EF0F7F99FEDF7
:10155000860BCDE9080107F023FF8DED040B9FED0D
:10156000820B53EC102B9DED040B51EC100B0EF085
:101570003DFCCDE906019DED080B53EC102B9DEDD4
:10158000060B51EC100B0EF03DFECDE90A019DED6E
:101590000A0B09F035F88DED0E0B9DED280B53EC81
:1015A000102B9DED2A0B51EC100B0EF00BF9CDE931
:1015B0000A013B98400003900EF0B1FBCDE9040115
:1015C0009DED040B53EC102B9FED6B0B51EC100BAE
:1015D0000EF0B4F9CDE906019DED060B09F050F8C7
:1015E0008DED080B9DED0A0B53EC102B9DED080BB8
:1015F00051EC100B0EF0FAFBCDE90C019DED0E0B3A
:1016000053EC102B9DED0C0B51EC100B0EF096F9DA
:10161000CDE924019DED260B53EC102B9FED580BCB
:1016200051EC100B0EF0E2FBCDE90E019DED0E0B1F
:1016300053EC102B9FED4A0B51EC100B0EF07EF982
:10164000CDE922019DED240B53EC102B9FED4C0BAB
:1016500051EC100B0EF0CAFBCDE90E019DED0E0B07
:1016600053EC102B9FED3E0B51EC100B0EF066F976
:10167000CDE9200137980EF052FB9FED390B53EC6A
:10168000102BCDE908019DED080B51EC100B0EF06D
:10169000B9FDCDE90C013B980EF041FBCDE9080105
:1016A0009DED080B53EC102B9FED330B51EC100B01
:1016B0000EF044F9CDE90A019DED0C0B53EC102B13
:1016C0009DED0A0B51EC100B0EF090FBCDE90E01D5
:1016D0009DED0E0B07F054FC8DED180B37980EF0B6
:1016E0001EFB9FED1F0B53EC102BCDE908019DED68
:1016F000080B51EC100B0EF085FDCDE90C013B9869
:101700000EF00DFBCDE908019DED080B53EC102BFD
:101710009FED190B51EC100B0EF010F9CDE90A01F9
:101720009DED0C0B53EC102B9DED0A0B51EC100BA7
:101730000EF05CFBCDE90E019DED0E0B08F0FCFEFA
:101740008DED160B34984068401E109000EBD07061
:101750004010119000201390BBE100201290AEE1E8
:10176000000000000000F03F00000000000000400A
:1017700000000000000000C0182D4454FB21094067
:10178000182D4454FB211940DDE91110401A09902D
:101790000EF0C5FACDE90A019DED160B53EC102BA6
:1017A0009DED0A0B51EC100B0EF020FBCDE90E0164
:1017B00011991398401A09900EF0B1FACDE90A0177
:1017C0009DED180B53EC102B9DED0A0B51EC100BFB
:1017D0000EF00CFBCDE90C019DED0E0B53EC102B24
:1017E0009DED0C0B51EC100B0DF0ECFFCDE91E0143
:1017F000DDE91110401A09900EF091FACDE90A01C5
:101800009DED180B53EC102B9DED0A0B51EC100BBA
:101810000EF0ECFACDE90E0113991198401A0990D7
:101820000EF07DFACDE90A019DED160B53EC102B5D
:101830009DED0A0B51EC100B0EF0D8FACDE90C011E
:101840009DED0E0B53EC102B9DED0C0B51EC100B82
:101850000DF0B8FFCDE91C019DED200B53EC102BD2
:101860009DED200B51EC100B0EF0C0FACDE90201FA
:101870009DED1C0B53EC102B9DED1C0B51EC100B34
:101880000EF0B4FACDE900019DED020B53EC102BE4
:101890009DED000B51EC100B0EF050F8CDE9060158
:1018A0009DED220B53EC102B9DED220B51EC100BF8
:1018B0000EF09CFACDE902019DED1E0B53EC102BAE
:1018C0009DED1E0B51EC100B0EF090FACDE90001CE
:1018D0009DED020B53EC102B9DED000B51EC100B0A
:1018E0000EF02CF8CDE904019DED060B53EC102B06
:1018F0009DED040B51EC100B0DF064FF9FEDCF0B31
:1019000053EC102BCDE908019DED080B51EC100BA9
:101910000EF06CFACDE90A019DED0A0B07F094FB7D
:101920008DED0E0B36980EF0FAF9CDE904013A98D8
:101930000EF0F5F9CDE902019DED040B53EC102BEF
:101940009DED020B51EC100B0EF05CFCCDE9060195
:101950009DED061B9DED2C0B07F0C6FF8DED0A0BD0
:101960009DED220B53EC102B1FED7B0B51EC100B5C
:101970000EF03CFACDE904019DED200B53EC102B49
:101980009DED040B51EC100B0EF030FACDE9060181
:101990009DED060B53EC102B1FED8F0B51EC100B34
:1019A0000DF0CCFFCDE908019DED0A0B53EC102B97
:1019B0009DED080B51EC100B0EF018FACDE90C015F
:1019C0009DED0E0B53EC102B9DED0C0B51EC100B01
:1019D0000EF00CFACDE91A019DED2A0B53EC102BF9
:1019E0001FED990B51EC100B0EF000FACDE9080138
:1019F0009DED1E0B53EC102B9DED080B51EC100BC5
:101A00000EF0F4F9CDE90A019DED0A0B07F0B8FAE2
:101A10008DED0C0B9DED1A0B53EC102B9DED0C0B6B
:101A200051EC100B0EF0E2F9CDE90E019DED0E0B1D
:101A300051EC100B0DF094FE34990A68139952F88A
:101A40002120129942F821009DED2A0B53EC102B16
:101A50001FEDB50B51EC100B0EF0C8F9CDE90801E4
:101A60009DED1E0B53EC102B9DED080B51EC100B54
:101A70000EF0BCF9CDE90A019DED0A0B08F05CFD02
:101A80008DED0C0B9DED1A0B53EC102B9DED0C0BFB
:101A900051EC100B0EF0AAF9CDE90E019DED0E0BE5
:101AA00051EC100B0DF05CFE35990A68139952F851
:101AB0002120129942F821001298401C129011988E
:101AC0004000401C129988423FF75EAE1398401CBC
:101AD000139011984000401C139988423FF73DAE87
:101AE0003C9801287DD19FED570B8DED140B002004
:101AF000139027E0002012901BE03498016813989F
:101B000051F82010129851F820000D900EF064FC4E
:101B1000CDE90E019DED140B53EC102B9DED0E0B3A
:101B200051EC100B0DF04EFECDE914011298401C43
:101B3000129011984000401C12998842DDDC1398E5
:101B4000401C139011984000401C13998842D1DC2E
:101B500011980EF0E4F81FEDFC0B53EC102BCDE9BF
:101B600008019DED080B51EC100B0EF03FF99FEDB5
:101B7000370B53EC102BCDE90A019DED0A0B51EC0C
:101B8000100B0DF01FFE9FED331BCDE90C019DEDF9
:101B90000C0B07F0A9FE8DED0E0B9DED0E0B53EC1B
:101BA000102B9DED140B51EC100B0DF0C7FECDE981
:101BB00014010020139038E0002012902CE034989B
:101BC0000168139851F82010129851F820000B90DA
:101BD0000EF002FCCDE90C019DED140B53EC102B23
:101BE00000E028E09DED0C0B51EC100B0EF00AFB11
:101BF000CDE90E019DED0E0B51EC100B0DF0B0FD7B
:101C0000014634980268139852F82020129842F83E
:101C100020101298401C129011984000401C1299FC
:101C20008842CCDC1398401C139011984000401C53
:101C300013998842C0DC38B010BD000000000000DD
:101C40000000E0BF000000000000000000000000F5
:101C50000000F03F000000000000004010B52DED36
:101C60000C8B0A2420460EF05AF841EC1D0B9FED18
:101C70006A0B53EC102B0EF0B9F841EC1C0B9FEDE6
:101C8000680B53EC102B0DF09DFD41EC1B0BB0EEDF
:101C90004B0AF0EE6B0A07F0FFFDB0EE40AAF0EE43
:101CA00060AA07F0E1F8B0EE409AF0EE609AB0EE6C
:101CB000491AF0EE691A9FED580B07F015FEB0EEC9
:101CC000408AF0EE608A51EC180B0DF0CBFF5649BC
:101CD000086020460EF023F841EC1D0B9FED4E0BE3
:101CE00053EC102B0EF082F841EC1C0B9FED4F0BC8
:101CF00053EC102B0DF066FD41EC1B0BB0EE4B0AC4
:101D0000F0EE6B0A07F0C8FDB0EE40AAF0EE60AA54
:101D100007F0AAF8B0EE409AF0EE609AB0EE491AD9
:101D2000F0EE691A9FED3C0B07F0DEFDB0EE408A45
:101D3000F0EE608A51EC180B0DF094FF3D490860FD
:101D40003D48006818B13C480068FFF795FA3B48E9
:101D5000006818B139480068FFF78EFA3848006803
:101D600018B137480068FFF787FA3648006818B19D
:101D700034480068FFF780FA3348006818B13248E9
:101D80000068FFF779FA3148006818B12F480068F9
:101D9000FFF772FA2E48006818B12D480068FFF767
:101DA0006BFA2C48006818B12A480068FFF764FAFB
:101DB0002948006818B128480068FFF75DFA2748ED
:101DC000006818B125480068FFF756FA24480068F3
:101DD00018B123480068FFF74FFA2248006818B18D
:101DE00020480068FFF748FA1F48006818B11E48ED
:101DF0000068FFF741FA1D48006818B11B480068E9
:101E0000FFF73AFA0B4801680748006804F05CFFE6
:101E1000BDEC0C8B10BD0000000000000000004075
:101E20000000000000004440EC0100200000000021
:101E300000003E40F0010020E8010020E401002005
:101E4000B4010020DC010020E0010020B8010020E6
:101E5000BC010020C0010020C4010020C8010020F6
:101E6000CC010020D0010020D4010020D8010020A6
:101E700070B52DED0C8B0A2528460DF050FF41EC76
:101E80001D0B9FED930B53EC102B0DF0AFFF41ECAE
:101E90001C0B9FED910B53EC102B0DF093FC41ECC0
:101EA0001B0BB0EE4B0AF0EE6B0A07F0F5FCB0EE40
:101EB00040AAF0EE60AA06F0D7FFB0EE409AF0EE2E
:101EC000609AB0EE491AF0EE691A9FED810B07F0A7
:101ED0000BFDB0EE408AF0EE608A51EC180B0DF06D
:101EE000C1FE7F49086028460DF019FF41EC1D0B2B
:101EF0009FED770B53EC102B0DF078FF41EC1C0B92
:101F00009FED780B53EC102B0DF05CFC41EC1B0BA0
:101F1000B0EE4B0AF0EE6B0A07F0BEFCB0EE40AA42
:101F2000F0EE60AA06F0A0FFB0EE409AF0EE609AE4
:101F3000B0EE491AF0EE691A9FED650B07F0D4FC7C
:101F4000B0EE408AF0EE608A51EC180B0DF08AFE7C
:101F5000664908601E2228216548FEF73DFE0446BA
:101F600034B94FF4966202216248FEF735FE04460A
:101F70003CB95E4802685A4801685F48FEF72CFE8B
:101F800004465EA15C4800680CF0DAF93CB9574899
:101F90000268534801685A48FEF71EFE044659A1DC
:101FA000574800680CF0CCF93CB9504802684C48DE
:101FB00001685648FEF710FE044655A153480068D4
:101FC0000CF0BEF93CB949480268454801685248DE
:101FD000FEF702FE044651A14F4800680CF0B0F92C
:101FE0002CB9152211465048FEF7F6FD04464FA1C4
:101FF0004D4800680CF0A4F92CB9152211464C4844
:10200000FEF7EAFD04464BA1494800680CF098F938
:102010003CB936480268324801684748FEF7DCFDA3
:10202000044646A1444800680CF08AF93CB92F48A0
:1020300002682B4801684348FEF7CEFD044642A1E2
:10204000404800680CF07CF93CB9284802682448F4
:1020500001683F48FEF7C0FD04463EA13C480068C9
:102060000CF06EF93CB9214802681D4801683A48F5
:10207000FEF7B2FD044639A1374800680CF060F95C
:102080003CB91A480268164801683548FEF7A4FDB5
:10209000044634A1324800680CF052F93CB91348A8
:1020A00002680F4801683148FEF796FD044630A1EA
:1020B0002E4800680CF044F934B90C48016808480F
:1020C000006804F05DFE04462046BDEC0C8B70BD3C
:1020D000000000000000004000000000000044403C
:1020E000EC0100200000000000003E40F001002054
:1020F000E8010020E4010020B4010020494D470020
:10210000DC010020465F7265616C0000E001002088
:10211000465F696D61670000B8010020494D475F67
:10212000696D616700000000BC010020477200007B
:10213000C001002047690000C4010020546D705F99
:1021400031000000C8010020546D705F32000000B3
:10215000CC010020465F3100D0010020465F3200F4
:10216000D4010020475F7265616C0000D801002037
:10217000475F696D616700002DE9F34F89B00F4635
:102180000A2478680690B8680590FE48006804F054
:1021900067FFB86800EB04090221B86811FB040A64
:1021A00000264DE0002514E0601E801B396851F8C0
:1021B0002010601E401B01EB800090ED000AF148EA
:1021C0000068006850F8260000EB850080ED000AEA
:1021D0006D1CA542E8DB254613E0601E801B3968B4
:1021E00051F82000291B00EB810090ED000AE54822
:1021F0000068006850F8260000EB850080ED000ABA
:102200006D1C4D45E9DB4D4617E0601E801B3968AB
:1022100051F82010B868C5EB40002044401E01EB87
:10222000800090ED000AD7480068006850F826004A
:1022300000EB850080ED000A6D1C5545E5DB761C42
:10224000A642AFDB786800EB0409B86800EB040A2B
:102250000221B86801FB0400089026464BE00025E7
:1022600013E0311B386850F82110601E401B01EB51
:10227000800090ED000AC3480068006850F826000E
:1022800000EB850080ED000A6D1CA542E9DB2546C8
:1022900012E0311B386850F82100291B00EB810047
:1022A00090ED000AB7480068006850F8260000EB7F
:1022B000850080ED000A6D1C5545EADB554616E0A9
:1022C000311B386850F82110B868C5EB4000204435
:1022D000401E01EB800090ED000AAA4800680068EB
:1022E00050F8260000EB850080ED000A6D1C089870
:1022F0008542E5DB761C4E45B1DB786800EB0409CE
:102300000221786801FB040AB86820440890B86884
:1023100001FB040007904E4658E0002517E0D7E97E
:102320000010C6EB40002044401E51F82010601EF3
:10233000401B01EB800090ED000A924800680068A5
:1023400050F8260000EB850080ED000A6D1CA542C8
:10235000E5DB254616E0D7E90010C6EB4000204437
:10236000401E51F82000291B00EB810090ED000A6F
:1023700084480068006850F8260000EB850080ED76
:10238000000A6D1C08988542E5DB089D1AE0D7E934
:102390000010C6EB40002044401E51F82010B868E1
:1023A000C5EB40002044401E01EB800090ED000A88
:1023B00074480068006850F8260000EB850080ED46
:1023C000000A6D1C07988542E1DB761C5645A4DBAC
:1023D0006D48006804F044FE6C48006804F040FE5C
:1023E0006B48006804F03CFE694803686548026871
:1023F000664801686448006804F0E6FB65480068C8
:1024000004F02EFE6448006804F02AFE6348006869
:1024100004F026FE6248006804F022FE614800686D
:1024200004F01EFE6048006804F01AFE5F48006871
:1024300004F016FE5E48006804F012FE4FF000083B
:10244000C8E04FF0000BBFE00121022208F10200BA
:102450009FED581B9FED590B5B46CDE90121009084
:1024600002464D4801684B480068FEF76FFF600068
:102470006100002200921346CDE9012103904548F6
:1024800001684848006804F03BFB600061000022DE
:1024900000921346CDE9012103903F48016842486C
:1024A000006804F02DFB404803683E48026840483D
:1024B00001683E48006804F087FB334802683B48E7
:1024C00001683648006804F055FD30480268384815
:1024D00001683348006804F04DFD314802682F4818
:1024E00001682848006804F06CFD284802682F48FD
:1024F00001682A48006804F03DFD234802682C4822
:1025000001682748006804F035FD25480268234823
:1025100001681F48006804F07BFD1D4803681948E6
:1025200002681F4801681D48006804F091FC0BEB2D
:1025300048000490002621E000251BE017480068B1
:102540000068022101FB046150F82100022101FB17
:10255000045100EB810090ED000A0998016804988D
:1025600051F82010059806FB005001EB800080ED2B
:10257000000A6D1C05988542E0DB761C06988642B1
:10258000DADB1FE0B4010020DC010020E0010020C4
:10259000B8010020BC010020C0010020C4010020BF
:1025A000C8010020CC010020D0010020D40100206F
:1025B000D8010020666666666666EE3F9A9999992C
:1025C0009999D93F0BF1010BBBF1020FFFF63CAF1C
:1025D00008F10108B8F1010FFFF633AF0BB0BDE809
:1025E000F08F000030B40C4601461546500700D06D
:1025F000012000EBD50010FB05F0C2B208784B7843
:10260000812809D3402B07D3FF2B05D0FF2803D007
:102610007F2B0CD2403B0BE00023184603E05B1CF1
:1026200004F8010BDBB29342F9D330BC7047413B55
:102630008138D9B2C0B2C0EB401303EB801001EB7C
:102640004000504309490C2D0AD0102D0BD0182DF5
:10265000EBD1D1F819100144204630BC06F0E0BAA5
:10266000D1F80910F7E7D1F81110F4E7F8E80120E4
:1026700072B6704762B670471CB5044600200090E1
:1026800001901A480121008902040D2004F060FF26
:10269000174908680190024601E00A68019212F0A9
:1026A000450FFAD01348D10705D0016841F0010168
:1026B000016001201CBD510705D5016841F00401EE
:1026C000016003201CBD0A49243909680D2901D085
:1026D00010201CBD40F2FF51016005482038006801
:1026E0000090C0F34320207000201CBD2800002073
:1026F000342C0140382C01401CB50E48016841F0D3
:1027000001010160016841F0100101600024012015
:10271000CDE90040234622461C210748FEF7D6FD9E
:102720000220CDE9004000231A4601210348FEF7AC
:10273000CDFD1CBD303802400010024000000240B8
:1027400070B5224C224E234D012108B1217001E0C9
:10275000207860B1D5F8100270B1D5F80C0258B1EC
:10276000D5F8080240B1D6F80002012804D0D5F807
:10277000100201281BD026E00A2009F015FC0020D9
:102780002070D5F8100250B1D5F80C0248B1D5F838
:10279000080240B1D6F80002012806D013E001205B
:1027A00070BD022070BD032070BD042070BDD5F83F
:1027B0000C02012807D1D5F80802012803D1D6F868
:1027C000000200B92170002070BD0000240000202C
:1027D0000000404200004242C0F34511C20AC0025C
:1027E00000EB4110104480B2704700002DE9F04327
:1027F000184F0646002438887D884543B888A0F5E0
:10280000D041043902D1B879012808D00021084606
:1028100003F0CEFE04F008F94FF0D84016E0002097
:10282000B8714FF02A09A7F80A904FF02B08A7F8C3
:102830000C80014603F0BCFE0120B871A7F80A80A5
:10284000A7F80C90E6E7A0F88060641CAC42FAD3CD
:10285000BDE8F083D80200202DE9F04F4A492A2331
:102860002B24898845F2105A4FF4305B4FF4285ED0
:102870004FF448754FF0F00C49F241394FF4A0770E
:1028800045F210364FF4F07280B13F484FF0010826
:10289000494580F806800780A0F802C001D0B14207
:1028A0003ED12C2505814381848157E036484FF085
:1028B0000008494580F80680A0F800C0478006D08F
:1028C000A1F5D04CBCF1040C01D0B1420CD12C25A7
:1028D00005814381A1F5D0438481043B01D0B142FD
:1028E00044D10780428041E0514507D1A0F808B0AB
:1028F000A0F80AE04FF42C5181810EE0A1F5C856F2
:10290000633E06D022210181202141812121818144
:102910002CE02C210181448183810280458025E0C7
:10292000A1F5D04CBCF1040C09D051450BD1A0F855
:1029300008B0A0F80AE04FF42C53838121E02C2545
:102940000581448109E0A1F5C85CBCF1630C12D09B
:10295000222303812123438120238381A1F5D043B6
:10296000043B01D0B14201D102804780BDE8F04F65
:10297000002003F01BBD4FF02C0CA0F808C04381D1
:10298000848105804280E9E7D80200202DE9F043E8
:10299000414D91460C460246060AA9882846A1F5F3
:1029A000134340894FEA1428413B16D0A1F5A643B2
:1029B000103B12D0B3F5007313D02E46A1F5C857C3
:1029C000B3793688B61A761E633F23D0A1F5D04777
:1029D000043F3AD0012B4DD04DE004F019F83046B9
:1029E00039E004F015F8304604F006F86889401C18
:1029F00080B204F00DF8D0B203F0FEFFA88904F015
:102A000007F8404603F0F8FFA889401C80B203F0A5
:102A1000FFFF2BE003B9B2B203F0FAFF160A30460B
:102A200003F0EAFFD0B203F0E7FF304603F0E4FF23
:102A3000D0B203F0E1FFA88903F0EAFF404603F0BB
:102A4000DBFFE0B203F0D8FF0DE0012B00D1B2B202
:102A500003F0DEFF100A03F0CFFFD0B203F0CCFF8B
:102A6000A88903F0D5FF404603F0C6FFE0B203F0AB
:102A7000C3FF07E0B2B2114603F0E0FFA889214688
:102A800003F0DCFF4FF0D840298920F87E1FA0F822
:102A90000290BDE8F0830000D80200202DE9F84341
:102AA000204D1F468046AB88089EA3F5D0400438D1
:102AB00002D1A879012807D0A2EB0800401C85B2FA
:102AC0000C464FF0D84929E02B880846991A002473
:102AD000AC713A462A24A3EB08036C812B27491ECC
:102AE0005B1EAF8189B29BB20096FFF7D7FF012032
:102AF000A8716F81AC81BDE8F8832146404603F0A0
:102B000057FD03F091FF0020494603E0A1F88060E3
:102B1000401C80B2A842F9D3641CA4B2BC42ECD9D8
:102B2000E9E70000D80200202DE9FC5FFE480068BC
:102B3000FD4940F078000860086840F00200086035
:102B4000F94808300068F84940F001000831086091
:102B5000012102200A46CDE9000181030023F34848
:102B6000FEF7B4FB01210320CDE90001002302227E
:102B70004CF23371EE48FEF7A9FB01210320CDE9A9
:102B80000001002302224FF68071EA48FEF79EFB07
:102B900001210320CDE90001E74C002302220903B3
:102BA0002046FEF793FB01220321CDE90012E34DFD
:102BB00002220023D1022846FEF788FB0C220021C6
:102BC000DB48FEF773FB0C220121D948FEF76EFBB0
:102BD0000C220421D648FEF769FB0C220521D448BB
:102BE000FEF764FB0C220821D148FEF75FFB0C22A4
:102BF0000921CF48FEF75AFB0C220A21CC48FEF7E8
:102C000055FB0C220E21CA48FEF750FB0C220F2167
:102C1000C748FEF74BFB0C220721C648FEF746FBD0
:102C20000C220821C348FEF741FB0C220921C148B0
:102C3000FEF73CFB0C220A21BE48FEF737FB0C22B4
:102C40000B21BC48FEF732FB0C221146B948FEF7B7
:102C50002DFB0C220D21B748FEF728FB0C220E217C
:102C6000B448FEF723FB0C220F21B248FEF71EFBEF
:102C70000C2211462046FEF719FB0C22114628466D
:102C8000FEF714FB0020E504A861E861C5F81C010B
:102C9000A86940F48050A861A86940F48040A86108
:102CA000A86940F01000A861E869E861E86940F0AF
:102CB0000F00E861E86940F47050E861D5F81C0144
:102CC000C5F81C01D5F81C0140F00900C5F81C012D
:102CD000D5F81C0140F40060C5F81C01A86940F05B
:102CE0000100A861322009F05FF90121002003F002
:102CF000A5FE322009F058F9002003F025FBDFF88B
:102D000040824FF6FF7B49F24136A8F8040045F2B5
:102D1000103745F2105441F6631946F6040AFF28AD
:102D200004D3584502D0B0F5134F7CD1D32003F023
:102D30006FFE03F07EFAA8F8040003F07AFAA8F810
:102D4000040003F076FA0BEA00205A46A8F80400C3
:102D500003F06FFAB8F804100843A8F80400B04272
:102D600073D0BF2003F054FE03F063FAA8F8040008
:102D700003F05FFAA8F8040003F05BFAA8F8040077
:102D800003F057FA02EA0020A8F8040003F051FA11
:102D9000B8F804100843A8F80400504555D0D420D2
:102DA00003F036FE03F045FAA8F8040003F041FAF8
:102DB000A8F8040003F03DFA02EA0020A8F8040095
:102DC00003F037FAB8F804100843A8F80400B84232
:102DD0003BD04FF45A4003F01BFE03F02AFAA8F848
:102DE00004004FF45B4003F013FE03F022FA02EA02
:102DF0000020A8F804004FF45C4003F009FE03F043
:102E000018FAB8F804100843A8F80400B0F5004F09
:102E10003ED0A04219D0A12003F0FAFD03F009FA38
:102E2000A8F8040000E010E003F003FA02EA002032
:102E3000A8F8040003F0FDF9B8F804100843A0F561
:102E4000AE41A8F8040061391FD080B2B04205D06D
:102E5000B84203D0A04201D048451CD1D5F81C018E
:102E600020F00F00C5F81C01D5F81C0120F470609B
:102E7000C5F81C01D5F81C0140F00300C5F81C0181
:102E8000D5F81C0140F4007021E0A8F80490E5E7B3
:102E9000A8F80440E2E7504503D0A0F545410539C4
:102EA00017D1D5F81C0120F00F00C5F81C01D5F88A
:102EB0001C0120F47060C5F81C01D5F81C0140F01D
:102EC0000A00C5F81C01D5F81C0140F44060C5F8A3
:102ED0001C01B8F804101BA0FDF71EFAB8F8040096
:102EE000B0427DD1CF2003F093FD002003F084FD9C
:102EF000C12003F081FD302003F07EFDED2003F0C2
:102F000087FD642003F078FD032003F075FD122097
:102F100003F072FD812003F06FFDE82003F078FDDF
:102F2000852003F069FD15E03038024000040240BE
:102F3000000C024000100240001402400018024041
:102F4000D8020020204C43442049443A25780D0AF9
:102F500000000000102003F04FFD7A2003F04CFD2C
:102F6000CB2003F055FD392003F046FD2C2003F063
:102F700043FD002003F040FD342003F03DFD02201E
:102F800003F03AFDF72003F043FD202003F034FD69
:102F9000EA2003F03DFD002003F02EFD002003F0A9
:102FA0002BFDC02003F034FD1B2003F025FDC120C4
:102FB00003F02EFD012003F01FFDC52003F028FDC6
:102FC000302003F019FD302003F016FDC72003F078
:102FD0001FFDB72003F010FD362003F019FD00E0BF
:102FE000A8E0482003F008FD3A2003F011FD552029
:102FF00003F002FDB12003F00BFD002003F0FCFC08
:103000001A2003F0F9FCB62003F002FD0A2003F0B9
:10301000F3FCA22003F0F0FCF22003F0F9FC002006
:1030200003F0EAFC262003F0F3FC012003F0E4FCAB
:10303000E02003F0EDFC0F2003F0DEFC2A2003F07B
:10304000DBFC282003F0D8FC082003F0D5FC0E2080
:1030500003F0D2FC082003F0CFFC542003F0CCFC9A
:10306000A92003F0C9FC432003F0C6FC0A2003F0AA
:10307000C3FC0F2003F0C0FC002003F0BDFC0020C7
:1030800003F0BAFC002003F0B7FC002003F0B4FC0E
:10309000E12003F0BDFC002003F0AEFC152003F09E
:1030A000ABFC172003F0A8FC072003F0A5FC1120BF
:1030B00003F0A2FC062003F09FFC2B2003F09CFCF5
:1030C000562003F099FC3C2003F096FC052003F009
:1030D00093FC102003F090FC0F2003F08DFC3F20A8
:1030E00003F08AFC3F2003F087FC0F2003F084FCF0
:1030F0002B2003F08DFC002003F07EFC002003F069
:103100007BFC012003F078FC3F2003F075FC2A20B3
:1031100003F07EFC002003F06FFC002003F06CFC49
:10312000002003F069FCEF2003F066FC112003F09F
:103130006FFCA5E050457CD1112003F069FC142000
:1031400008F032FFD02003F063FC072003F054FCAA
:10315000422003F051FC1D2003F04EFCD12003F06F
:1031600057FC002003F048FC1A2003F045FC09201E
:1031700003F042FCD22003F04BFC012003F03CFCA6
:10318000222003F039FCC02003F042FC102003F0A1
:1031900033FC3B2003F030FC002003F02DFC022028
:1031A00003F02AFC112003F027FCC52003F030FCBB
:1031B000032003F021FCC82003F02AFC002003F0C8
:1031C0001BFC252003F018FC212003F015FC052032
:1031D00003F012FC002003F00FFC0A2003F00CFCAB
:1031E000652003F009FC252003F006FC772003F09E
:1031F00003FC502003F000FC0F2003F0FDFB002037
:1032000003F0FAFBF82003F003FC012003F0F4FBC9
:10321000FE2003F0FDFB002003F0EEFB022003F094
:10322000EBFB202003F0F4FB362003F0F1FB082039
:1032300000E02BE003F0E0FB3A2003F0E9FB55202F
:1032400003F0DAFB2B2003F0E3FB002003F0D4FBB8
:10325000002003F0D1FB012003F0CEFB3F2003F060
:10326000CBFB2A2003F0D4FB002003F0C5FB002099
:1032700003F0C2FB012003F0BFFBDF2003F0BCFB27
:10328000782008F091FE292001F0FBBEB8427CD1E5
:10329000ED2003F0BDFB012003F0AEFBFE2003F0A8
:1032A000ABFBEE2003F0B4FBDE2003F0A5FB2120F6
:1032B00003F0A2FBF12003F0ABFB012003F09CFB29
:1032C000DF2003F0A5FB102003F096FBC42003F0E1
:1032D0009FFB8F2003F090FBC62003F099FB00209A
:1032E00003F08AFBE22003F087FBE22003F084FB7B
:1032F000E22003F081FBBF2003F08AFBAA2003F049
:103300007BFBB02003F084FB0D2003F075FB002055
:1033100003F072FB0D2003F06FFB002003F06CFB49
:10332000112003F069FB002003F066FB192003F075
:1033300063FB002003F060FB212003F05DFB002015
:1033400003F05AFB2D2003F057FB002003F054FB41
:103350003D2003F051FB002003F04EFB5D2003F005
:103360004BFB002003F048FB5D2003F045FB0020F1
:1033700003F042FBB12003F04BFB802003F03CFB49
:10338000002003F039FB8B2000E0FCE303F034FB6A
:10339000002003F031FB962003F02EFB002003F009
:1033A0002BFBB22003F034FB002003F025FB0020B0
:1033B00003F022FB022003F01FFB002003F01CFBA4
:1033C000032003F019FB002003F016FBB32003F0E9
:1033D0001FFB002003F010FB002003F00DFB00207A
:1033E00003F00AFB002003F007FB002003F004FBBE
:1033F000002003F001FB002003F0FEFA002003F0A0
:10340000FBFA002003F0F8FA002003F0F5FA0020A0
:1034100003F0F2FA002003F0EFFA002003F0ECFAD8
:10342000002003F0E9FA002003F0E6FA002003F0A0
:10343000E3FA002003F0E0FA002003F0DDFA0020B8
:1034400003F0DAFA002003F0D7FA002003F0D4FAF0
:10345000002003F0D1FA002003F0CEFA002003F0A0
:10346000CBFAB42003F0D4FA8B2003F0C5FA002085
:1034700003F0C2FA962003F0BFFA002003F0BCFA72
:10348000A12003F0B9FA002003F0B6FAB52003F04A
:10349000BFFA022003F0B0FA002003F0ADFA0320D7
:1034A00003F0AAFA002003F0A7FA042003F0A4FA1C
:1034B000002003F0A1FAB62003F0AAFA002003F0DE
:1034C0009BFA002003F098FAB72003F0A1FA00203D
:1034D00003F092FA002003F08FFA3F2003F08CFAF9
:1034E000002003F089FA5E2003F086FA002003F042
:1034F00083FA642003F080FA002003F07DFA8C2028
:1035000003F07AFA002003F077FAAC2003F074FAA3
:10351000002003F071FADC2003F06EFA002003F0C3
:103520006BFA702003F068FA002003F065FA90202F
:1035300003F062FA002003F05FFAEB2003F05CFA7C
:10354000002003F059FADC2003F056FA002003F0C3
:1035500053FAB82003F05CFA002003F04DFA002083
:1035600003F04AFA002003F047FA002003F044FA7F
:10357000002003F041FA002003F03EFA002003F09F
:103580003BFA002003F038FABA2003F041FA242075
:1035900003F032FA002003F02FFA002003F02CFA97
:1035A000002003F029FAC12003F032FA202003F0B2
:1035B00023FA002003F020FA542003F01DFA002023
:1035C00003F01AFAFF2003F017FA002003F014FAB0
:1035D000C22003F01DFA0A2003F00EFA002003F0C7
:1035E0000BFA042003F008FA002003F005FAC320C8
:1035F00003F00EFA3C2003F0FFF9002003F0FCF981
:103600003A2003F0F9F9002003F0F6F9392003F02D
:10361000F3F9002003F0F0F9372003F0EDF9002072
:1036200003F0EAF93C2003F0E7F9002003F0E4F9A5
:10363000362003F0E1F9002003F0DEF9322003F038
:10364000DBF9002003F0D8F92F2003F0D5F9002092
:1036500003F0D2F92C2003F0CFF9002003F0CCF9CD
:10366000292003F0C9F9002003F0C6F9262003F051
:10367000C3F9002003F0C0F9242003F0BDF90020B5
:1036800003F0BAF9242003F0B7F9002003F0B4F9ED
:10369000232003F0B1F9002003F0AEF93C2003F041
:1036A000ABF9002003F0A8F9362003F0A5F90020BB
:1036B00003F0A2F9322003F09FF9002003F09CF9F7
:1036C0002F2003F099F9002003F096F92C2003F045
:1036D00093F9002003F090F9292003F08DF90020E0
:1036E00003F08AF9262003F087F9002003F084F91B
:1036F000242003F081F9002003F07EF9242003F058
:103700007BF9002003F078F9232003F075F90020FD
:1037100003F072F9C42003F07BF9622003F06CF926
:10372000002003F069F9052003F066F9002003F09A
:1037300063F9842003F060F9002003F05DF9F020C4
:1037400003F05AF9002003F057F9182003F054F958
:10375000002003F051F9A42003F04EF9002003F0FB
:103760004BF9182003F048F9002003F045F95020E8
:1037700003F042F9002003F03FF90C2003F03CF97C
:10378000002003F039F9172003F036F9002003F088
:1037900033F9952003F030F9002003F02DF9F320E0
:1037A00003F02AF9002003F027F9E62003F024F9BA
:1037B000002003F021F9C52003F02AF9322003F09C
:1037C0001BF9002003F018F9442003F015F900203C
:1037D00003F012F9652003F00FF9002003F00CF953
:1037E000762003F009F9002003F006F9882003F0A1
:1037F00003F9002003F000F9C62003F009F92020A6
:1038000003F0FAF8002003F0F7F8172003F0F4F8BB
:10381000002003F0F1F8012003F0EEF8002003F09F
:10382000EBF8C72003F0F4F8002003F0E5F80020DF
:1038300003F0E2F8002003F0DFF8002003F0DCF8EA
:10384000C82003F0E5F8002003F0D6F8002003F0CC
:10385000D3F8002003F0D0F8002003F0CDF8C92001
:1038600003F0D6F8002003F0C7F8002003F0C4F8F6
:10387000002003F0C1F8002003F0BEF8002003F0A0
:10388000BBF8002003F0B8F8002003F0B5F80020E2
:1038900003F0B2F8002003F0AFF8002003F0ACF81A
:1038A000002003F0A9F8002003F0A6F8002003F0A0
:1038B000A3F8002003F0A0F8002003F09DF80020FA
:1038C00003F09AF8E02003F0A3F8162003F094F830
:1038D000002003F091F81C2003F08EF8002003F084
:1038E0008BF8212003F088F8002003F085F83620BB
:1038F00003F082F8002003F07FF8462003F07CF804
:10390000002003F079F8522003F076F8002003F04D
:1039100073F8642003F070F8002003F06DF87A204B
:1039200003F06AF8002003F067F88B2003F064F8D6
:10393000002003F061F8992003F05EF8002003F006
:103940005BF8A82003F058F8002003F055F8B920E0
:1039500003F052F8002003F04FF8C42003F04CF8B5
:10396000002003F049F8CA2003F046F8002003F0D5
:1039700043F8D22003F040F8002003F03DF8D920AE
:1039800003F03AF8002003F037F8E02003F034F8B1
:10399000002003F031F8F32003F02EF8002003F0AC
:1039A0002BF8E12003F034F8162003F025F800206E
:1039B00003F022F81C2003F01FF8002003F01CF88D
:1039C000222003F019F8002003F016F8362003F047
:1039D00013F8002003F010F8452003F00DF8002044
:1039E00003F00AF8522003F007F8002003F004F86F
:1039F000642003F001F8002002F0FEFF7A2002F0BC
:103A0000FBFF002002F0F8FF8B2002F0F5FF002002
:103A100002F0F2FF992002F0EFFF002002F0ECFF2D
:103A2000A82002F0E9FF002002F0E6FFB92002F032
:103A3000E3FF002002F0E0FFC42002F0DDFF0020E1
:103A400002F0DAFFCA2002F0D7FF002002F0D4FF14
:103A5000D22002F0D1FF002002F0CEFFD82002F0E9
:103A6000CBFF002002F0C8FFE02002F0C5FF0020DD
:103A700002F0C2FFF32002F0BFFF002002F0BCFF03
:103A8000E22002F0C5FF052002F0B6FF002002F0A0
:103A9000B3FF0B2002F0B0FF002002F0ADFF1B20AF
:103AA00002F0AAFF002002F0A7FF342002F0A4FFDA
:103AB000002002F0A1FF442002F09EFF002002F04F
:103AC0009BFF4F2002F098FF002002F095FF61203D
:103AD00002F092FF002002F08FFF792002F08CFFAD
:103AE000002002F089FF882002F086FF002002F00B
:103AF00083FF972002F080FF002002F07DFFA620C8
:103B000002F07AFF002002F077FFB72002F074FF86
:103B1000002002F071FFC22002F06EFF002002F0D0
:103B20006BFFC72002F068FF002002F065FFD12084
:103B300002F062FF002002F05FFFD62002F05CFF7F
:103B4000002002F059FFDD2002F056FF002002F0B5
:103B500053FFF32002F050FF002002F04DFFE3205E
:103B600002F056FF052002F047FF002002F044FF5C
:103B70000A2002F041FF002002F03EFF1C2002F06C
:103B80003BFF002000E0FDE202F036FF332002F0B0
:103B900033FF002002F030FF442002F02DFF002010
:103BA00002F02AFF502002F027FF002002F024FF3D
:103BB000622002F021FF002002F01EFF782002F0B8
:103BC0001BFF002002F018FF882002F015FF0020E4
:103BD00002F012FF972002F00FFF002002F00CFF0E
:103BE000A62002F009FF002002F006FFB72002F035
:103BF00003FF002002F000FFC22002F0FDFE0020C3
:103C000002F0FAFEC72002F0F7FE002002F0F4FEF8
:103C1000D12002F0F1FE002002F0EEFED52002F0ED
:103C2000EBFE002002F0E8FEDD2002F0E5FE0020C1
:103C300002F0E2FEF32002F0DFFE002002F0DCFEE4
:103C4000E42002F0E5FE012002F0D6FE002002F0A2
:103C5000D3FE012002F0D0FE002002F0CDFE0220B3
:103C600002F0CAFE002002F0C7FE2A2002F0C4FEC5
:103C7000002002F0C1FE3C2002F0BEFE002002F057
:103C8000BBFE4B2002F0B8FE002002F0B5FE5D2026
:103C900002F0B2FE002002F0AFFE742002F0ACFE93
:103CA000002002F0A9FE842002F0A6FE002002F00F
:103CB000A3FE932002F0A0FE002002F09DFEA220B1
:103CC00002F09AFE002002F097FEB32002F094FE6C
:103CD000002002F091FEBE2002F08EFE002002F0D5
:103CE0008BFEC42002F088FE002002F085FECD206D
:103CF00002F082FE002002F07FFED32002F07CFE64
:103D0000002002F079FEDD2002F076FE002002F0B5
:103D100073FEF32002F070FE002002F06DFEE5203D
:103D200002F076FE002002F067FE002002F064FE42
:103D3000002002F061FE002002F05EFE022002F090
:103D40005BFE002002F058FE292002F055FE002004
:103D500002F052FE3C2002F04FFE002002F04CFE2A
:103D60004B2002F049FE002002F046FE5D2002F0EA
:103D700043FE002002F040FE742002F03DFE0020D1
:103D800002F03AFE842002F037FE002002F034FEFA
:103D9000932002F031FE002002F02EFEA22002F05D
:103DA0002BFE002002F028FEB32002F025FE0020AA
:103DB00002F022FEBE2002F01FFE002002F01CFED8
:103DC000C42002F019FE002002F016FECD2002F001
:103DD00013FE002002F010FED32002F00DFE0020A2
:103DE00002F00AFEDC2002F007FE002002F004FED2
:103DF000F32002F001FE002002F0FEFDE62002F0BA
:103E000007FE112002F0F8FD002002F0F5FD34203D
:103E100002F0F2FD002002F0EFFD562002F0ECFD72
:103E2000002002F0E9FD762002F0E6FD002002F01D
:103E3000E3FD772002F0E0FD002002F0DDFD6620CA
:103E400002F0DAFD002002F0D7FD882002F0D4FD58
:103E5000002002F0D1FD992002F0CEFD002002F0FA
:103E6000CBFDBB2002F0C8FD002002F0C5FD99206B
:103E700002F0C2FD002002F0BFFD662002F0BCFD92
:103E8000002002F0B9FD552002F0B6FD002002F03E
:103E9000B3FD552002F0B0FD002002F0ADFD45203D
:103EA00002F0AAFD002002F0A7FD432002F0A4FDCD
:103EB000002002F0A1FD442002F09EFD002002F04F
:103EC0009BFDE72002F0A4FD322002F095FD0020CA
:103ED00002F092FD552002F08FFD002002F08CFDD3
:103EE000762002F089FD002002F086FD662002F0B7
:103EF00083FD002002F080FD672002F07DFD0020A0
:103F000002F07AFD672002F077FD002002F074FDD8
:103F1000872002F071FD002002F06EFD992002F072
:103F20006BFD002002F068FDBB2002F065FD002063
:103F300002F062FD992002F05FFD002002F05CFDBE
:103F4000772002F059FD002002F056FD442002F0D7
:103F500053FD002002F050FD562002F04DFD0020E0
:103F600002F04AFD232002F047FD002002F044FD4C
:103F7000332002F041FD002002F03EFD452002F01A
:103F80003BFD002002F038FDE82002F041FD00205A
:103F900002F032FD002002F02FFD992002F02CFDEE
:103FA000002002F029FD872002F026FD002002F00B
:103FB00023FD882002F020FD002002F01DFD772067
:103FC00002F01AFD002002F017FD662002F014FD39
:103FD000002002F011FD882002F00EFD002002F00A
:103FE0000BFDAA2002F008FD002002F005FDBB2019
:103FF00002F002FD002002F0FFFC992002F0FCFC20
:10400000002002F0F9FC662002F0F6FC002002F02D
:10401000F3FC552002F0F0FC002002F0EDFC5520EE
:1040200002F0EAFC002002F0E7FC442002F0E4FC8D
:10403000002002F0E1FC442002F0DEFC002002F04F
:10404000DBFC552002F0D8FC002002F0D5FCE92072
:1040500002F0DEFCAA2002F0CFFC002002F0CCFC33
:10406000002002F0C9FC002002F0C6FC002002F093
:10407000CFFCAA2002F0C0FCCF2002F0C9FC002037
:1040800002F0BAFC002002F0B7FC002002F0B4FC01
:10409000002002F0B1FC002002F0AEFC002002F093
:1040A000ABFC002002F0A8FC002002F0A5FC0020E0
:1040B00002F0A2FC002002F09FFC002002F09CFC19
:1040C000002002F099FC002002F096FC002002F093
:1040D00093FC002002F090FC002002F08DFC0020F8
:1040E00002F08AFCF02002F093FC002002F084FC35
:1040F000502002F081FC002002F07EFC002002F043
:104100007BFC002002F078FCF32002F081FC002010
:1041100002F072FCF92002F07BFC062002F06CFC3D
:10412000102002F069FC292002F066FC002002F059
:1041300063FC3A2002F06CFC552002F05DFC11207B
:1041400002F066FC642007F02FFF292002F060FCDB
:10415000352002F05DFC002002F04EFC512002F000
:1041600057FCFF2002F048FC532002F051FC2C20A9
:1041700002F042FC552002F04BFC822002F03CFC95
:104180002C20FCE3A0427DD14FF47043552118460A
:1041900002F054FC4FF20104AA21204602F04EFC2A
:1041A000651C5221284602F049FCA61C0821304615
:1041B00002F044FCE71C0121384602F03FFC0D21CF
:1041C0004FF4304002F03AFC0D214BF2010002F0B6
:1041D00035FC0D214BF2020002F030FC4FF4364862
:1041E0003421404602F02AFC34214BF2016002F0F7
:1041F00025FC34214BF2026002F020FC4FF43149DF
:104200000D21484602F01AFC4BF2011A0D215046CE
:1042100002F014FC0D214BF2021002F00FFC3421CD
:104220004FF4374002F00AFC34214BF2017002F0E7
:1042300005FC34214BF2027002F000FC00214FF427
:10424000324002F0FBFB00214BF2012002F0F6FBB2
:1042500000214BF2022002F0F1FB24214FF4384000
:1042600002F0ECFB24214BF6010002F0E7FB2421D5
:104270004BF6020002F0E2FB01214FF43F4002F056
:10428000DDFB00E0FEE30F214FF4334002F0D6FBEC
:104290000F214BF2013002F0D1FB0F214BF2023023
:1042A00002F0CCFB34214FF4394002F0C7FB34213B
:1042B0004BF6011002F0C2FB34214BF6021002F063
:1042C000BDFB08214FF4354002F0B8FB08214BF24A
:1042D000015002F0B3FB08214BF2025002F0AEFB9A
:1042E00003214FF4424002F0A9FB24214FF43A404D
:1042F00002F0A4FB24214BF6012002F09FFB2421B5
:104300004BF6022002F09AFB00214FF43C4002F0F1
:1043100095FB78214BF6014002F090FB00214BF613
:10432000024002F08BFB00214FF43D4002F086FB7F
:1043300078214BF6015002F081FB00214BF6025030
:1043400002F07CFB00214FF43E4002F077FB642139
:104350004BF6016002F072FB00214FF4514002F075
:104360006DFB33214DF2011002F068FB00214DF28C
:10437000021002F063FB34214DF2031002F05EFBE9
:1043800000214DF2041002F059FB3A214DF20510C4
:1043900002F054FB00214DF2061002F04FFB4A21BF
:1043A0004DF2071002F04AFB00214DF2081002F016
:1043B00045FB5C214DF2091002F040FB00214DF25B
:1043C0000A1002F03BFB81214DF20B1002F036FB8C
:1043D00000214DF20C1002F031FBA6214DF20D1020
:1043E00002F02CFB00214DF20E1002F027FBE5211C
:1043F0004DF20F1002F022FB01214DF2101002F0DD
:104400001DFB13214DF2111002F018FB01214DF29A
:10441000121002F013FB54214DF2131002F00EFBA8
:1044200001214DF2141002F009FB82214DF215100A
:1044300002F004FB01214DF2161002F0FFFACA212E
:104440004DF2171002F0FAFA02214DF2181002F0A4
:10445000F5FA00214DF2191002F0F0FA02214DF2A6
:104460001A1002F0EBFA01214DF21B1002F0E6FAED
:1044700002214DF21C1002F0E1FA34214DF21D1020
:1044800002F0DCFA02214DF21E1002F0D7FA672189
:104490004DF21F1002F0D2FA02214DF2201002F06C
:1044A000CDFA84214DF2211002F0C8FA02214DF21A
:1044B000221002F0C3FAA4214DF2231002F0BEFA3A
:1044C00002214DF2241002F0B9FAB7214DF2251065
:1044D00002F0B4FA02214DF2261002F0AFFACF2119
:1044E0004DF2271002F0AAFA02214DF2281002F034
:1044F000A5FADE214DF2291002F0A0FA02214DF2B8
:104500002A1002F09BFAF2214DF22B1002F096FADB
:1045100002214DF22C1002F091FAFE214DF22D10E5
:1045200002F08CFA03214DF22E1002F087FA1021CE
:104530004DF22F1002F082FA03214DF2301002F0FA
:104540007DFA33214DF2311002F078FA03214DF259
:10455000321002F073FA6D214DF2331002F06EFA50
:1045600000214FF4524002F069FA33214DF201204C
:1045700002F064FA00214DF2022002F05FFA3421C9
:104580004DF2032002F05AFA00214DF2042002F00D
:1045900055FA3A214DF2052002F050FA00214DF271
:1045A000062002F04BFA4A214DF2072002F046FAAB
:1045B00000214DF2082002F041FA5C214DF2092061
:1045C00002F03CFA00214DF20A2002F037FA812174
:1045D0004DF20B2002F032FA00214DF20C2002F0D5
:1045E0002DFAA6214DF20D2002F028FA00214DF2FD
:1045F0000E2002F023FAE5214DF20F2002F01EFA00
:1046000001214DF2102002F019FA13214DF2112070
:1046100002F014FA01214DF2122002F00FFA542197
:104620004DF2132002F00AFA01214DF2142002F09B
:1046300005FA82214DF2152002F000FA01214DF217
:10464000162002F0FBF9CA214DF2172002F0F6F90C
:1046500002214DF2182002F0F1F900214DF219204B
:1046600002F0ECF902214DF21A2002F0E7F90121E3
:104670004DF21B2002F0E2F902214DF21C2002F063
:10468000DDF934214DF21D2002F0D8F902214DF25E
:104690001E2002F0D3F967214DF21F2002F0CEF95F
:1046A00002214DF2202002F0C9F984214DF221208F
:1046B00002F0C4F902214DF2222002F0BFF9A42138
:1046C0004DF2232002F0BAF902214DF2242002F02B
:1046D000B5F9B7214DF2252002F0B0F902214DF2D3
:1046E000262002F0ABF9CF214DF2272002F0A6F9E7
:1046F00002214DF2282002F0A1F9DE214DF22920FD
:1047000002F09CF902214DF22A2002F097F9F221E1
:104710004DF22B2002F092F902214DF22C2002F0F2
:104720008DF9FE214DF22D2002F088F903214DF282
:104730002E2002F083F910214DF22F2002F07EF995
:1047400003214DF2302002F079F933214DF231206E
:1047500002F074F903214DF2322002F06FF96D215D
:104760004DF2332002F06AF900214FF4534002F079
:1047700065F933214DF2013002F060F900214DF26C
:10478000023002F05BF934214DF2033002F056F9A9
:1047900000214DF2043002F051F93A214DF205307A
:1047A00002F04CF900214DF2063002F047F94A219F
:1047B0004DF2073002F042F900214DF2083002F0CC
:1047C0003DF95C214DF2093002F038F900214DF23B
:1047D0000A3002F033F981214DF20B3002F02EF94C
:1047E00000214DF20C3002F029F9A6214DF20D30D6
:1047F00002F024F900214DF20E3002F01FF9E521FC
:104800004DF20F3002F01AF901214DF2103002F092
:1048100015F913214DF2113002F010F901214DF27A
:10482000123002F00BF954214DF2133002F006F968
:1048300001214DF2143002F001F982214DF21530C0
:1048400002F0FCF801214DF2163002F0F7F8CA210F
:104850004DF2173002F0F2F802214DF2183002F05A
:10486000EDF800214DF2193002F0E8F802214DF286
:104870001A3002F0E3F801214DF21B3002F0DEF8AD
:1048800002214DF21C3002F0D9F834214DF21D30D6
:1048900002F0D4F802214DF21E3002F0CFF8672169
:1048A0004DF21F3002F0CAF802214DF2203002F022
:1048B000C5F884214DF2213002F0C0F802214DF2FA
:1048C000223002F0BBF8A4214DF2233002F0B6F8FA
:1048D00002214DF2243002F0B1F8B7214DF225301B
:1048E00002F0ACF802214DF2263002F0A7F8CF21F9
:1048F0004DF2273002F0A2F802214DF2283002F0EA
:104900009DF8DE214DF2293002F098F802214DF297
:104910002A3002F093F8F2214DF22B3002F08EF89B
:1049200002214DF22C3002F089F8FE214DF22D309B
:1049300002F084F803214DF22E3002F07FF81021AE
:104940004DF22F3002F07AF803214DF2303002F0B0
:1049500075F833214DF2313002F070F803214DF239
:10496000323002F06BF86D214DF2333002F066F810
:1049700000214FF4544002F061F8332100E080E35D
:104980004DF2014002F05AF800214DF2024002F0CF
:1049900055F834214DF2034002F050F800214DF259
:1049A000044002F04BF83A214DF2054002F046F87F
:1049B00000214DF2064002F041F84A214DF2074035
:1049C00002F03CF800214DF2084002F037F85C217B
:1049D0004DF2094002F032F800214DF20A4002F097
:1049E0002DF881214DF20B4002F028F800214DF204
:1049F0000C4002F023F8A6214DF20D4002F01EF803
:104A000000214DF20E4002F019F8E5214DF20F4061
:104A100002F014F801214DF2104002F00FF81321BA
:104A20004DF2114002F00AF801214DF2124002F05D
:104A300005F854214DF2134002F000F801214DF227
:104A4000144001F0FBFF82214DF2154001F0F6FF0A
:104A500001214DF2164001F0F1FFCA214DF217403D
:104A600001F0ECFF02214DF2184001F0E7FF0021B8
:104A70004DF2194001F0E2FF02214DF21A4001F01F
:104A8000DDFF00E000E301214DF21B4001F0D6FF05
:104A900002214DF21C4001F0D1FF34214DF21D40A6
:104AA00001F0CCFF02214DF21E4001F0C7FF67214B
:104AB0004DF21F4001F0C2FF02214DF2204001F0F3
:104AC000BDFF84214DF2214001F0B8FF02214DF2DB
:104AD000224001F0B3FFA4214DF2234001F0AEFFCC
:104AE00002214DF2244001F0A9FFB7214DF22540EB
:104AF00001F0A4FF02214DF2264001F09FFFCF21DB
:104B00004DF2274001F09AFF02214DF2284001F0BA
:104B100095FFDE214DF2294001F090FF02214DF278
:104B20002A4001F08BFFF2214DF22B4001F086FF6D
:104B300002214DF22C4001F081FFFE214DF22D406B
:104B400001F07CFF03214DF22E4001F077FF102190
:104B50004DF22F4001F072FF03214DF2304001F081
:104B60006DFF33214DF2314001F068FF03214DF21A
:104B7000324001F063FF6D214DF2334001F05EFFE2
:104B800000214FF4554001F059FF33214DF20150FF
:104B900001F054FF00214DF2025001F04FFF34218B
:104BA0004DF2035001F04AFF00214DF2045001F094
:104BB00045FF3A214DF2055001F040FF00214DF232
:104BC000065001F03BFF4A214DF2075001F036FF3D
:104BD00000214DF2085001F031FF5C214DF20950E7
:104BE00001F02CFF00214DF20A5001F027FF812136
:104BF0004DF20B5001F022FF00214DF20C5001F05C
:104C00001DFFA6214DF20D5001F018FF00214DF2BD
:104C10000E5001F013FFE5214DF20F5001F00EFF91
:104C200001214DF2105001F009FF13214DF21150F6
:104C300001F004FF01214DF2125001F0FFFE54215A
:104C40004DF2135001F0FAFE01214DF2145001F023
:104C5000F5FE82214DF2155001F0F0FE01214DF2DA
:104C6000165001F0EBFECA214DF2175001F0E6FE9E
:104C700002214DF2185001F0E1FE00214DF21950D1
:104C800001F0DCFE02214DF21A5001F0D7FE0121A5
:104C90004DF21B5001F0D2FE02214DF21C5001F0EA
:104CA000CDFE34214DF21D5001F0C8FE02214DF21F
:104CB0001E5001F0C3FE67214DF21F5001F0BEFEF1
:104CC00002214DF2205001F0B9FE84214DF2215015
:104CD00001F0B4FE02214DF2225001F0AFFEA421FA
:104CE0004DF2235001F0AAFE02214DF2245001F0B2
:104CF000A5FEB7214DF2255001F0A0FE02214DF294
:104D0000265001F09BFECF214DF2275001F096FE78
:104D100002214DF2285001F091FEDE214DF2295082
:104D200001F08CFE02214DF22A5001F087FEF221A3
:104D30004DF22B5001F082FE02214DF22C5001F079
:104D40007DFEFE214DF22D5001F078FE03214DF243
:104D50002E5001F073FE10214DF22F5001F06EFE27
:104D600003214DF2305001F069FE33214DF23150F4
:104D700001F064FE03214DF2325001F05FFE6D211F
:104D80004DF2335001F05AFE00214FF4564001F02D
:104D900055FE33214DF2016001F050FE00214DF22D
:104DA000026001F04BFE34214DF2036001F046FE3B
:104DB00000214DF2046001F041FE3A214DF2056000
:104DC00001F03CFE00214DF2066001F037FE4A2161
:104DD0004DF2076001F032FE00214DF2086001F053
:104DE0002DFE5C214DF2096001F028FE00214DF2FC
:104DF0000A6001F023FE81214DF20B6001F01EFEDE
:104E000000214DF20C6001F019FEA6214DF20D605B
:104E100001F014FE00214DF20E6001F00FFEE521BD
:104E20004DF20F6001F00AFE01214DF2106001F019
:104E300005FE13214DF2116001F000FE01214DF23B
:104E4000126001F0FBFD54214DF2136001F0F6FDFC
:104E500001214DF2146001F0F1FD82214DF2156047
:104E600001F0ECFD01214DF2166001F0E7FDCA21D1
:104E70004DF2176001F0E2FD02214DF2186001F0E1
:104E8000DDFD00214DF2196001F0D8FD02214DF247
:104E90001A6001F0D3FD01214DF21B6001F0CEFD3F
:104EA00002214DF21C6001F0C9FD34214DF21D605C
:104EB00001F0C4FD02214DF21E6001F0BFFD67212B
:104EC0004DF21F6001F0BAFD02214DF2206001F0A9
:104ED000B5FD84214DF2216001F0B0FD02214DF2BB
:104EE000226001F0ABFDA4214DF2236001F0A6FD8C
:104EF00002214DF2246001F0A1FDB7214DF22560A1
:104F000001F09CFD02214DF2266001F097FDCF21BA
:104F10004DF2276001F092FD02214DF2286001F070
:104F20008DFDDE214DF2296001F088FD02214DF258
:104F30002A6001F083FDF2214DF22B6001F07EFD2D
:104F400002214DF22C6001F079FDFE214DF22D6021
:104F500001F074FD03214DF22E6001F06FFD102170
:104F60004DF22F6001F06AFD03214DF2306001F037
:104F700065FD33214DF2316001F060FD03214DF2FA
:104F8000326001F05BFD6D214DF2336001F056FDA2
:104F90005521184601F052FDAA21204601F04EFD90
:104FA0005221284601F04AFD0821304601F046FD15
:104FB0000021384601F042FDCC21484601F03EFD7B
:104FC0000021504601F03AFD0521404601F036FD32
:104FD00070214FF4374001F031FD70214BF2017028
:104FE00001F02CFD01214FF4384001F027FD032191
:104FF0004BF6010001F022FD03214BF6020001F007
:105000001DFD03214BF6030001F018FD02214FF4B2
:105010003C4001F013FD00214BF6014001F00EFD74
:1050200000214BF6024001F009FDD0214FF4494028
:1050300001F004FD02214CF6011001F0FFFC5021AB
:105040004CF6021001F0FAFC50214CF6031001F06E
:10505000F5FC50214CF6041001F0F0FC00214FF457
:10506000545001F0EBFC55214FF4685001F0E6FC80
:105070004FF4885001F0CCFC782006F0AFFF4FF4DD
:10508000245001F0C5FCF1E0A0F513414FF4807409
:105090004FF4E06640F2022740F23F184FF4274AEF
:1050A00025397CD0F51DC91E7AD04FF4887A083195
:1050B00077D0113976D0A0F5A841083973D0A0F582
:1050C000A8514FF4407A05396ED0B1F520416CD02B
:1050D000B1F580516AD0A0F58A41313967D0091FF6
:1050E00066D04845CFD1E22001F092FC1D2001F0AE
:1050F00083FC022001F080FC042001F07DFC642090
:1051000006F06CFFE02001F083FC012001F074FC4C
:105110000A2006F049FFE02001F07AFC032001F0AC
:105120006BFC0C2006F040FF012001F071FC0A200E
:1051300006F03AFFE62001F06BFC2F2001F05CFC4A
:10514000FF2001F059FCFF2001F056FCB02001F0D7
:105150005FFC202001F050FC002001F04DFC0320FA
:1051600001F04AFC40F21F3001F046FC012001F042
:1051700043FC40F2DF1001F03FFC002001F03CFC5A
:10518000B42001F045FC042001F036FC40F21F4041
:1051900001F032FC002001F02FFC2E2009E071E02C
:1051A0003BE1F6E19DE272E3FDE3FDE3FDE3FDE3B8
:1051B000FDE301F021FC002001F01EFC002001F0C5
:1051C0001BFC002001F018FC002001F015FCB620AB
:1051D00001F01EFC022001F00FFC4FF4037001F0FF
:1051E0000BFC002001F008FC172001F005FC152045
:1051F00001F002FC002001F0FFFB002001F0FCFBAD
:10520000F02001F005FC032001F0F6FB292001F05D
:10521000FFFBD02001F0FCFB002001F0EDFBBE20E5
:1052200001F0F6FB052001F0E7FBFE2001F0E4FBB6
:10523000012001F0E1FB002001F0DEFB002001F085
:10524000DBFB002001F0D8FBB82001F0E1FB0320DC
:1052500001F0D2FB012001F0CFFBBA2001F0D8FB16
:10526000012001F0C9FB642001F078F80020FDF76F
:10527000F3FAFF490120C1F8BC025846BDE8FC5FC3
:10528000FDF7B4BA47F6F001E52001F0D7FB21465F
:10529000012001F0D3FB3146022001F0CFFB41F2A7
:1052A0003001032001F0CAFB0021042001F0C6FBFD
:1052B0003946082001F0C2FB0021092001F0BEFBA5
:1052C00000210A2001F0BAFB00210C2001F0B6FBFE
:1052D00000210D2001F0B2FB00210F2001F0AEFBF8
:1052E0000021102001F0AAFB0721112001F0A6FBEC
:1052F0000021122001F0A2FB0021132001F09EFBEF
:105300000021072001F09AFB41F29061102001F08A
:1053100095FB40F22721112001F090FB9D211220E6
:1053200001F08CFB4FF4C851132001F087FB2521BD
:10533000292001F083FB0D212B2001F07FFB0721A9
:10534000302001F07BFB40F20331312001F076FB8D
:105350000321322001F072FB40F20621352001F0DA
:105360006DFB0821362001F069FB40F20641372031
:1053700001F064FB4FF44171382001F05FFB07211D
:10538000392001F05BFB40F202613C2001F056FB4A
:1053900008213D2001F052FB0021502001F04EFB7E
:1053A000EF21512001F04AFB0021522001F046FB81
:1053B0004146532001F042FB5146602001F03EFB84
:1053C0000121612001F03AFB00216A2001F036FB47
:1053D0000021802001F032FB0021812001F02EFB12
:1053E0000021822001F02AFB0021832001F026FB0E
:1053F0000021842001F022FB0021852001F01EFB0A
:105400001021902001F01AFB4FF4C061922001F0AE
:1054100015FB40F233110720FEE341F28F01EC202F
:1054200001F00CFB41F23421EF2001F007FB214693
:10543000012001F003FB3146022001F0FFFA41F2A6
:105440003001032001F0FAFA0021042001F0F6FAFD
:105450003946082001F0F2FA0021092001F0EEFAA5
:1054600000210A2001F0EAFA01210C2001F0E6FAFD
:1054700000210D2001F0E2FA00210F2001F0DEFAF8
:105480000021102001F0DAFA0721112001F0D6FAEC
:105490000021122001F0D2FA0021132001F0CEFAEF
:1054A0000121072001F0CAFA322006F07DFD41F209
:1054B0009041102001F0C2FA40F22721112001F0A2
:1054C000BDFA322006F070FD8A21122001F0B6FAF2
:1054D000322006F069FD4FF4D051132001F0AEFAEE
:1054E0000621292001F0AAFA0D212B2001F0A6FAAD
:1054F000322006F059FD0021202001F09FFA002102
:10550000212001F09BFA322006F04EFD00213020D0
:1055100001F094FA40F20461312001F08FFA40F278
:105520000531322001F08AFA0021352001F086FA97
:1055300040F60941362001F081FA4FF4017137201D
:1055400001F07CFA40F20131382001F077FA294667
:10555000392001F073FA00213C2001F06FFA40F687
:105560000A213D2001F06AFA322006F01DFD0021DB
:10557000502001F063FAEF21512001F05FFA002181
:10558000522001F05BFA4146532001F057FA514690
:1055900052E10021084601F051FA2146012001F0B4
:1055A0004DFA3146022001F049FA41F23001032060
:1055B00001F044FA0021042001F040FA39460820A5
:1055C00001F03CFA0021092001F038FA00210A20FC
:1055D00001F034FA01210C2001F030FA00210D20F5
:1055E00001F02CFA00210F2001F028FA322006F0F9
:1055F000DBFC40F20111072001F020FA322006F016
:10560000D3FC4FF48651102001F018FA0721112025
:1056100001F014FA53465146122001F00FFA4FF4EC
:105620003061132001F00AFA0021292001F006FA66
:1056300044F210012B2001F001FA0021502001F06A
:10564000FDF9EF21512001F0F9F90021522001F07C
:10565000F5F94146532001F0F1F94FF41C51602057
:1056600001F0ECF90121612001F0E8F9002101E0ED
:10567000008040426A2001F0E1F90021802001F021
:10568000DDF90021812001F0D9F90021822001F00B
:10569000D5F90021832001F0D1F90021842001F007
:1056A000CDF90021852001F0C9F91021902001F0E9
:1056B000C5F90021922001F0C1F90121932001F0E8
:1056C000BDF91946952001F0B9F90021972001F0A4
:1056D000B5F90021982001F0B1F940F273110720CB
:1056E0007EE341F21401E72001F0A8F921460120F0
:1056F00001F0A4F94FF40071022001F09FF941F28A
:105700003801032001F09AF93946082001F096F992
:105710000021092001F092F900210A2001F08EF900
:1057200000210C2001F08AF900210D2001F086F9FA
:1057300000210F2001F082F90021102001F07EF9F4
:105740000721112001F07AF90021122001F076F9E9
:105750000021132001F072F9C82006F025FC41F267
:105760009061102001F06AF940F22721112001F028
:1057700065F9322006F018FC0C21122001F05EF9C8
:10578000322006F011FC4FF40061132001F056F9AD
:105790001121292001F052F90B212B2001F04EF9A3
:1057A000322006F001FC0021202001F047F9434699
:1057B0004146212001F042F90021302001F03EF95C
:1057C0004FF483742146312001F038F90021322052
:1057D00001F034F94FF40171352001F02FF941F255
:1057E0000A61362001F02AF92946372001F026F90E
:1057F0002146382001F022F92946392001F01EF90E
:1058000040F202413C2001F019F940F60F413D20E1
:1058100001F014F90021502001F010F9EF2151207E
:1058200001F00CF90021522001F008F9194653202B
:1058300001F004F94FF41C51602001F0FFF8012140
:10584000612001F0FBF800216A2001F0F7F8002147
:10585000802001F0F3F80021812001F0EFF8002111
:10586000822001F0EBF80021832001F0E7F800210D
:10587000842001F0E3F80021852001F0DFF81021F9
:10588000902001F0DBF84FF4C0619220FEE3214646
:10589000012001F0D3F83146022001F0CFF841F2A7
:1058A0003001032001F0CAF80021042001F0C6F8FD
:1058B00040F20721082001F0C1F80021092001F081
:1058C000BDF800210A2001F0B9F800210C2001F0F8
:1058D000B5F800210D2001F0B1F800210F2001F0F2
:1058E000ADF8142006F060FB41F2B061102001F029
:1058F000A5F80121112001F0A1F80121172001F0E4
:105900009DF84FF49C71122001F098F84FF400615B
:10591000132001F093F80921292001F08FF80921C3
:105920002A2001F08BF80021A42001F087F8002143
:10593000502001F083F8EF21512001F07FF8002181
:10594000522001F07BF84146532001F077F84FF4E4
:105950001C51602001F072F80121612001F06EF805
:1059600000216A2001F06AF80021802001F066F829
:105970000021812001F062F80021822001F05EF810
:105980000021832001F05AF80021842001F056F80C
:105990000021852001F052F81321902001F04EF8EB
:1059A0000021922004E014E01EE11AE2E2E298E312
:1059B00001F044F80321932001F040F8514695206E
:1059C00001F03CF840F27311072001F037F8322063
:1059D00006E10021072001F031F8322006F0E4FA58
:1059E0004FF48E71122001F029F80121A42001F05A
:1059F00025F80F21082001F021F808210A2001F0E4
:105A00001DF808210D2001F019F82946302001F079
:105A100015F80721312001F011F840F2036132201E
:105A200001F00CF83146332001F008F839463420F3
:105A300001F004F80221352001F000F841F60F7161
:105A4000362000F0FBFF2946372000F0F7FF002149
:105A5000382000F0F3FF0021392000F0EFFF294645
:105A60003A2000F0EBFF00213B2000F0E7FF072188
:105A70003C2000F0E3FF00213D2000F0DFFF32205A
:105A800006F092FA0121072000F0D8FF012117202B
:105A900000F0D4FF322006F087FA4FF4BD511020F9
:105AA00000F0CCFF40F21721112000F0C7FF4FF4A7
:105AB0008F71122000F0C2FF4FF47061132000F0CC
:105AC000BDFF00212A2000F0B9FF0A21292000F0A3
:105AD000B5FF4FF49F71122000F0B0FF002150205D
